{
  "contractName": "vending_machine",
  "abi": [
    {
      "inputs": [],
      "payable": false,
      "stateMutability": "nonpayable",
      "type": "constructor"
    },
    {
      "constant": true,
      "inputs": [
        {
          "internalType": "address",
          "name": "",
          "type": "address"
        }
      ],
      "name": "candyBarStock",
      "outputs": [
        {
          "internalType": "uint256",
          "name": "",
          "type": "uint256"
        }
      ],
      "payable": false,
      "stateMutability": "view",
      "type": "function"
    },
    {
      "constant": true,
      "inputs": [],
      "name": "owner",
      "outputs": [
        {
          "internalType": "address",
          "name": "",
          "type": "address"
        }
      ],
      "payable": false,
      "stateMutability": "view",
      "type": "function"
    },
    {
      "constant": true,
      "inputs": [],
      "name": "getAmount",
      "outputs": [
        {
          "internalType": "uint256",
          "name": "",
          "type": "uint256"
        }
      ],
      "payable": false,
      "stateMutability": "view",
      "type": "function"
    },
    {
      "constant": false,
      "inputs": [
        {
          "internalType": "uint256",
          "name": "amount",
          "type": "uint256"
        }
      ],
      "name": "purchase",
      "outputs": [],
      "payable": true,
      "stateMutability": "payable",
      "type": "function"
    },
    {
      "constant": false,
      "inputs": [
        {
          "internalType": "uint256",
          "name": "amount",
          "type": "uint256"
        }
      ],
      "name": "restock",
      "outputs": [],
      "payable": false,
      "stateMutability": "nonpayable",
      "type": "function"
    }
  ],
  "bytecode": "0x608060405234801561001057600080fd5b50600080546001600160a01b03191633178155308152600160205260409020603290556102dd806100426000396000f3fe60806040526004361061004a5760003560e01c806362ac00291461004f5780638da5cb5b14610094578063c21a702a146100c5578063d321fe29146100f1578063efef39a114610106575b600080fd5b34801561005b57600080fd5b506100826004803603602081101561007257600080fd5b50356001600160a01b0316610123565b60408051918252519081900360200190f35b3480156100a057600080fd5b506100a9610135565b604080516001600160a01b039092168252519081900360200190f35b3480156100d157600080fd5b506100ef600480360360208110156100e857600080fd5b5035610144565b005b3480156100fd57600080fd5b506100826101bb565b6100ef6004803603602081101561011c57600080fd5b50356101ce565b60016020526000908152604090205481565b6000546001600160a01b031681565b6000546001600160a01b031633146101a3576040805162461bcd60e51b815260206004820152601b60248201527f4f6e6c7920746865206f776e65722063616e20726573746f636b2e0000000000604482015290519081900360640190fd5b30600090815260016020526040902080549091019055565b3060009081526001602052604090205490565b80671bc16d674ec800000234101561021f576040805162461bcd60e51b815260206004820152600f60248201526e3220455448207065722063616e647960881b604482015290519081900360640190fd5b30600090815260016020526040902054811115610283576040805162461bcd60e51b815260206004820152601b60248201527f4e6f7420656e6f7567682063616e6469657320696e2073746f636b0000000000604482015290519081900360640190fd5b306000908152600160205260408082208054849003905533825290208054909101905556fea265627a7a723158204a64879fa26baf1e6b1bc9cfb49efe92092ba2e72fab13440bf4bb3288fe003564736f6c63430005100032",
  "source": "// SPDX-License-Identifier: MIT\npragma solidity ^0.5.11;\n\ncontract vending_machine {\n  address public owner;\n  mapping (address => uint) public candyBarStock;\n\n  constructor() public {\n    owner = msg.sender;\n    candyBarStock[address(this)] = 50;\n  }\n\n  function getAmount() public view returns (uint){\n    return candyBarStock[address(this)];\n  }\n\n  function purchase(uint amount) public payable{\n    require(msg.value >= amount * 2 ether, \"2 ETH per candy\");\n    require(candyBarStock[address(this)] >= amount, \"Not enough candies in stock\");\n    candyBarStock[address(this)] -= amount;\n    candyBarStock[msg.sender] += amount;\n  }\n\n  function restock(uint amount) public {\n    require(msg.sender == owner, \"Only the owner can restock.\");\n    candyBarStock[address(this)] += amount;\n  }\n\n}\n",
  "sourcePath": "C:\\Users\\HP\\Desktop\\Neo4j\\Solidity\\Vending_machine-contract\\contracts\\vending_machine.sol",
  "compiler": {
    "name": "solc",
    "version": "0.5.16+commit.9c3226ce.Emscripten.clang"
  },
  "schemaVersion": "3.4.16",
  "updatedAt": "2024-06-12T14:00:01.652Z",
  "networkType": "ethereum",
  "devdoc": {
    "methods": {}
  },
  "userdoc": {
    "methods": {}
  }
}